:020000020000FC
:100000000FE50DBF04E00EBF0FEF01BB47D0AFD02F
:1000100000E407B907E806B900271127222733278C
:100020006FEF369A3699FECF44B155B1140F251FA4
:10003000301F6A95B1F7103810F02F5F3F4F422FF5
:10004000532F8FE2839540515742E0F7405F584D60
:100050009FE29395485E5340E0F748515C4FAFE212
:10006000A39544565040E0F74C595F4FBFE2B3951B
:100070004A505040E0F7465F5F4F405D782F2BD0ED
:1000800066D0792F28D063D07A2F25D060D07B2FEF
:1000900022D05DD0742F1FD05AD0BECF0F931F93A4
:1000A0002F9322E349D02A95E9F703E002BB32D02F
:1000B00043D030D041D02ED03FD002E002BB2AD076
:1000C0003BD008E219D00CE017D004E015D02F91F6
:1000D0001F910F9108950F931F93072F102F0295D3
:1000E0000F70006102BB16D01F70106112BB12D0DE
:1000F0001DD01F910F9108950F931F93102F0295FC
:100100000F7002BB07D01F7012BB04D00FD01F911D
:100110000F910895959A00000000000095980895A9
:100120000F9300ECE9DF08D00F9108950F9302E4DC
:100130000A95F1F70F9108950F931F9301E219ECBF
:100140001A95F1F70A95D9F71F910F9108950F931A
:100150001F932F9308E01FEF2FEF2A95F1F71A95C1
:10016000D9F70A95C1F72F911F910F9108950F9319
:1001700001E0C2DFE1DF0F9108950F9302E0BCDFE1
:06018000DBDF0F91089582
:00000001FF
