:020000020000FC
:100000000FE50DBF04E00EBF0FEF01BB8DD0F5D0A3
:10001000C1E0C03019F4C1E000E402C0C0E001E476
:1000200007B903E806B900271127222733276FEF06
:10003000369A3699FECF44B155B1140F251F301FA3
:100040006A95B1F7103810F02F5F3F4F422F532FB2
:100050008FE2839540515742E0F7405F584D9FE251
:100060009395485E5340E0F748515C4FAFE2A3954B
:1000700044565040E0F74C595F4FBFE2B3954A50A9
:100080005040E0F7465F5F4F405DC030D1F478E408
:1000900068D075E666D07CE664D07CE662D079E60E
:1000A00060D077E65ED07BE65CD075E65AD07ED035
:1000B00079E657D074E755D07AE353D070E251D047
:1000C0001BC07CE44ED071E64CD075E74AD074E793
:1000D00048D073E746D074E744D071E642D075E665
:1000E00040D064D072E73DD07BE63BD075E639D096
:1000F0007AE337D070E235D0C03011F4792F31D0A7
:100100007A2F2FD07B2F2DD0742FA03329F4B0332A
:1001100019F4473308F470E324D05FD05ED05DD08B
:100120006CD071D05AD075CF0F931F932F9322E3C9
:1001300049D02A95E9F703E002BB32D043D030D052
:1001400041D02ED03FD002E002BB2AD03BD008E203
:1001500019D00CE017D004E015D02F911F910F910A
:1001600008950F931F93072F102F02950F700061B2
:1001700002BB16D01F70106112BB12D01DD01F9190
:100180000F9108950F931F93102F02950F7002BBCC
:1001900007D01F7012BB04D00FD01F910F9108958C
:1001A000959A000000000000959808950F9300ECC8
:1001B000E9DF08D00F9108950F9302E40A95F1F753
:1001C0000F9108950F931F9301E219EC1A95F1F71F
:1001D0000A95D9F71F910F9108950F931F932F93AD
:1001E00008E01FEF2FEF2A95F1F71A95D9F70A9536
:1001F000C1F72F911F910F9108950F9301E0C2DF76
:10020000E1DF0F9108950F9302E0BCDFDBDF0F9178
:0202100008954F
:00000001FF
