:020000020000FC
:100000000FE50DBF04E00EBF0FEF01BB41D05CD088
:1000100004E507D005E605D003E703D004E701D0E7
:10002000FFCF6F937F93602F02950F70006172B3C3
:100030007078072B02BB1BD06F706061672B62BBAF
:1000400016D01BD07F916F9108956F937F93602F8F
:1000500002950F7072B37078072B02BB08D06F70D7
:10006000672B62BB04D009D07F916F910895959A58
:100070000000000000009598089502E40A95F1F749
:10008000089500E269EC6A95F1F70A95D9F70895A9
:100090000F9301B30F6301BB76E0F3DF7A95E9F7C5
:1000A00003E002BBE4DFEDDFE2DFEBDFE0DFE9DF0F
:1000B00002E002BBDCDFE5DF08E2C7DF0CE0C5DF02
:1000C00004E0C3DF0F9108950F9301E0BEDFD9DF95
:1000D0000F9108950F9302E0B8DFD3DF0F910895D9
:1000E0000F930591003011F09CDFFBCF0F91089525
:1000F0000F936F937F93602F00E3645610F0039586
:10010000FCCF8FDF6C5900E36A5010F00395FCCFF1
:1001100088DF665F00E3060F84DF7F916F910F91A8
:1001200008950F9302950F7006D00F910F930F70E3
:1001300002D00F9108950A300CF0095F005D71DF65
:02014000089520
:00000001FF
