:020000020000FC
:100000000FE50DBF04E00EBF0FEF01BB30D097D05E
:100010000FE44AD084D00EE647D081D00EE644D01B
:100020007ED00FE641D07BD005EA3ED078D009E6FD
:100030003BD075D003E738D072D004E735D06FD00D
:1000400057D005EA31D06BD00CE62ED068D009E647
:100050002BD065D005E628D062D002E625D05FD04F
:1000600001E222D05CD071D06AD059D0D1CF0F93A9
:100070001F932F9322E348D02A95E9F703E002BBB0
:1000800031D042D02FD040D02DD03ED002E002BBA4
:1000900029D03AD008E218D00CE016D004E014D0F1
:1000A0002F911F910F9108950F931F93102F029579
:1000B0000F70006102BB16D01F70106112BB12D00E
:1000C0001DD01F910F9108950F931F93102F02952C
:1000D0000F7002BB07D01F7012BB04D00FD01F914E
:1000E0000F910895959A00000000000095980895DA
:1000F0000F9300ECE9DF08D00F9108950F9302E40D
:100100000A95F1F70F9108950F931F9301E219ECEF
:100110001A95F1F70A95D9F71F910F9108950F934A
:100120001F932F9308E01FEF2FEF2A95F1F71A95F1
:10013000D9F70A95C1F72F911F910F9108950F9349
:1001400001E0C2DFE1DF0F9108950F9302E0BCDF11
:06015000DBDF0F910895B2
:00000001FF
