:020000020000FC
:100000000FE50DBF04E00EBF0FEF01BB12D04FD0C4
:1000100004E526D002E724D005E722D00CE620D064
:100020000CE61ED005E61CD002E71AD00DE618D06B
:10003000FFCF22E335D02A95E9F703E002BB26D0B3
:100040002FD024D02DD022D02BD002E002BB1ED046
:1000500027D008E211D00CE00FD004E00DD00895B5
:10006000102F02950F70006102BB10D01F7010613D
:1000700012BB0CD011D00895102F02950F7002BB47
:1000800005D01F7012BB02D007D00895959A0000CA
:10009000000000009598089502E40A95F1F708958C
:1000A00001E219EC1A95F1F70A95D9F708950F9323
:1000B00001E0E2DFF5DF0F91089502E0DDDFF0DF20
:0200C0000895A1
:00000001FF
