:020000020000FC
:100000000FE50DBF04E00EBF0FEF07BB0FEF01BB05
:1000100000E41BE223E23FEF47EF5BEF6DEF7EEF83
:100020008FEF02BB78BB6ED032BB68BB6BD032BBEC
:1000300058BB68D032BB48BB65D08A9591F712BBDC
:1000400078BB60D002BB68BB5DD032BB58BB5AD016
:1000500032BB48BB57D08A9591F712BB78BB52D0C0
:1000600012BB68BB4FD002BB58BB4CD032BB48BBA5
:1000700049D08A9591F722BB78BB44D012BB68BBAC
:1000800041D012BB58BB3ED002BB48BB3BD08A9587
:1000900091F732BB78BB36D032BB68BB33D032BBB2
:1000A00058BB30D032BB48BB2DD08A9591F722BBCC
:1000B00078BB28D012BB68BB25D012BB58BB22D05E
:1000C00002BB48BB1FD08A9591F732BB78BB1AD0D0
:1000D00032BB68BB17D032BB58BB14D032BB48BB55
:1000E00011D08A9591F722BB78BB0CD012BB68BBAC
:1000F00009D012BB58BB06D002BB48BB03D08A95BF
:1001000091F78FCF0F931F932F9301E011E020E61B
:100110002A95F1F71A95D9F70A95C1F72F911F91F2
:040120000F9108959E
:00000001FF
