:020000020000FC
:1000000003C025C02DC050E00FE50DBF04E00EBFBA
:1000100000E001BB0FEF07BB00E005BF00EC0BBF2A
:1000200078942FE31AE0152717BB8BD01EE0152715
:1000300017BB87D016E0152717BB83D012E0152712
:1000400017BB7FD027310CF4EDCF2A95EBCF0F9360
:100050000FB74F934FE01F9350E113D00AD018957C
:100060000F930FB74F934FE01F9350E032D001D062
:1000700018951F9117BB55D04F910FBF0F912FE3CC
:1000800008954A9511E0152717BB4BD015E01527A9
:1000900017BB47D01DE0152717BB43D019E0152724
:1000A00017BB3FD0403069F74FE04A9518E015275D
:1000B00017BB37D01CE0152717BB33D014E015272A
:1000C00017BB2FD010E0152717BB2BD0403069F796
:1000D00008954A9510E0152717BB23D014E0152783
:1000E00017BB1FD01CE0152717BB1BD018E0152726
:1000F00017BB17D0403069F74FE04A9519E0152734
:1001000017BB0FD01DE0152717BB0BD015E0152727
:1001100017BB07D011E0152717BB03D0403069F794
:1001200008951F932F933F9311E02FE33FEF3A95EC
:10013000F1F72A95D9F71A95C1F71F912F913F91A1
:1001400008951F933F93122F3FEF3A953030E9F710
:0C0150001A951030C9F71F913F910895D7
:00000001FF
