:020000020000FC
:1000000002C01BC044C00FE50DBF04E00EBF00E0FE
:1000100001BB0FEF07BB0AE005BF00EC0BBF7894F4
:100020001AE017BB5ED01EE017BB5BD016E017BB13
:1000300058D012E017BB55D0F3CF0F930FB74F93A3
:100040004FE04A9511E017BB4CD015E017BB49D0E3
:100050001DE017BB46D019E017BB43D0403089F7ED
:100060004FE04A9518E017BB3CD01CE017BB39D0D5
:1000700014E017BB36D010E017BB33D0403089F7FF
:100080004F91929A12E017BB0FBF0F9118950F93E3
:100090000FB74F934FE04A9510E017BB22D014E002
:1000A00017BB1FD01CE017BB1CD018E017BB19D022
:1000B000403089F74FE04A9519E017BB12D01DE098
:1000C00017BB0FD015E017BB0CD011E017BB09D040
:1000D000403089F74F91939A12E017BB0FBF0F91F1
:1000E00018951F932F933F9311E02FE33FEF3A951D
:1000F000F1F72A95D9F71A95C1F71F912F913F91E2
:02010000089560
:00000001FF
