:020000020000FC
:1000000003C02AC033C050E00FE50DBF04E00EBFAF
:1000100000E001BB0FEF07BB00E005BF00EC0BBF2A
:10002000789493D02CE307D027310CF4FCCF2A9599
:100030002A952A95F8CF1AE0152717BB79D01EE02C
:10004000152717BB75D016E0152717BB71D012E026
:10005000152717BB6DD008950F930FB74F9344E149
:100060002F9322E31F9312D00BD018950F930FB745
:100070004F9344E12F9322E31F9331D001D0189581
:100080002F911F914F910FBF0F9108954A9511E045
:10009000152717BB4DD015E0152717BB49D01DE01C
:1000A000152717BB45D019E0152717BB41D04030A5
:1000B00069F744E126E44A9518E0152717BB38D0C4
:1000C0001CE0152717BB34D014E0152717BB30D020
:1000D00010E0152717BB2CD0403069F708954A95DA
:1000E00010E0152717BB24D014E0152717BB20D02C
:1000F0001CE0152717BB1CD018E0152717BB18D01C
:10010000403069F744E126E44A9519E0152717BB0A
:100110000FD01DE0152717BB0BD015E0152717BB17
:1001200007D011E0152717BB03D0403069F70895B9
:100130001F933F93122F3FEF3A953030E9F71A950E
:100140001030C9F71F913F9108950F931F932F937C
:100150003F934F935F9300E407B903E806B9002784
:1001600011272227332744276FEF369A3699FECF7F
:1001700044B155B1140F251F301F6A95B1F71038DF
:1001800010F02F5F3F4F422F532F7FE2739544565D
:100190005040E0F74C595F4F0F911F912F913F91C5
:1001A0004F915F91743314F450E1089550E0089535
:00000001FF
