:020000020000FC
:1000000002C020C027C00FE50DBF04E00EBF00E016
:1000100001BB0FEF07BB00E005BF00EC0BBF7894FE
:100020002FE31AE017BB76D01EE017BB73D016E0A3
:1000300017BB70D012E017BB6DD027310CF4F1CF95
:100040002A95EFCF0F930FB74F934FE01F9312D026
:1000500009D018950F930FB74F934FE01F932AD0F5
:1000600001D018951F9117BB45D04F910FBF0F912D
:100070002FE308954A9511E017BB3CD015E017BB5C
:1000800039D01DE017BB36D019E017BB33D0403054
:1000900089F74FE04A9518E017BB2CD01CE017BB3E
:1000A00029D014E017BB26D010E017BB23D0403076
:1000B00089F708954A9510E017BB1CD014E017BBD0
:1000C00019D01CE017BB16D018E017BB13D0403076
:1000D00089F74FE04A9519E017BB0CD01DE017BB1C
:1000E00009D015E017BB06D011E017BB03D0403094
:1000F00089F708951F932F933F9311E02FE33FEF6C
:100100003A95F1F72A95D9F71A95C1F71F912F91D2
:100110003F9108951F933F93122F3FEF3A95303050
:0E012000E9F71A951030C9F71F913F91089525
:00000001FF
