:020000020000FC
:1000000002C01BC022C00FE50DBF04E00EBF00E020
:1000100001BB0FEF07BB00E005BF00EC0BBF7894FE
:100020001AE017BB61D01EE017BB5ED016E017BB0D
:100030005BD012E017BB58D0F3CF0F930FB74F939D
:100040004FE01F9311D009D018950F930FB74F931E
:100050004FE01F9329D001D018951F9117BB44D0B2
:100060004F910FBF0F9108954A9511E017BB3CD0F7
:1000700015E017BB39D01DE017BB36D019E017BB10
:1000800033D0403089F74FE04A9518E017BB2CD0A9
:100090001CE017BB29D014E017BB26D010E017BB1B
:1000A00023D0403089F708954A9510E017BB1CD043
:1000B00014E017BB19D01CE017BB16D018E017BB13
:1000C00013D0403089F74FE04A9519E017BB0CD0A8
:1000D0001DE017BB09D015E017BB06D011E017BB18
:1000E00003D0403089F708951F932F933F9311E079
:1000F0002FE33FEF3A95F1F72A95D9F71A95C1F713
:080100001F912F913F9108951A
:00000001FF
