:020000020000FC
:020000000BC033
:100016003DC10FE50DBF04E00EBF0FEF07BB0FEFAD
:1000260001BB00E000BD09E109B906E800BD539A2D
:10003600579A549A7894A4D00CD1C1E0F0E09798DE
:10004600E1E0DE3609F4FDCFC03019F4C1E000E48A
:1000560002C0C0E002E407B903E806B90027112789
:10006600222733276FEF369A3699FECF44B155B122
:10007600140F251F301F6A95B1F7103810F02F5F47
:100086003F4F422F532F8FE2839540515742E0F75F
:10009600405F584D9FE29395485E5340E0F74851C4
:1000A6005C4FAFE2A39544565040E0F74C595F4F82
:1000B600BFE2B3954A505040E0F7465F5F4F405D60
:1000C600C13031F578E479D0D6D075E676D0D3D084
:1000D6007CE673D0D0D07CE670D0CDD079E66DD0FA
:1000E600CAD077E66AD0C7D07BE667D0C4D075E6BB
:1000F60064D0C1D087D079E660D0BDD074E75DD03A
:10010600BAD07AE35AD0B7D070E257D0B4D026C06E
:1001160020D174E552D0AFD075E64FD0ACD07DE695
:100126004CD0A9D070E749D0A6D075E646D0A3D06A
:1001360072E743D0A0D071E640D09DD074E73DD0A1
:100146009AD060D075E739D096D072E736D093D082
:100156007AE333D090D070E230D08DD07A2F2DD084
:100166008AD07B2F2AD087D0742F27D084D061D015
:1001760060D05FD05ED05DD05CD06BD070D061CFE8
:100186000F931F932F9322E349D02A95E9F703E0B3
:1001960008BB32D043D030D041D02ED03FD002E081
:1001A60008BB2AD03BD008E219D00CE017D004E0F7
:1001B60015D02F911F910F9108950F931F93072F1D
:1001C600102F02950F70006108BB16D01F701061CA
:1001D60018BB12D01DD01F910F9108950F931F9336
:1001E600102F02950F7008BB07D01F7018BB04D0E4
:1001F6000FD01F910F910895C59A000000000000CE
:10020600C59808950F9300ECE9DF08D00F91089583
:100216000F9302E40A95F1F70F9108950F931F9338
:1002260001E219EC1A95F1F70A95D9F71F910F918A
:1002360008950F931F932F9308E01FEF2FEF2A9532
:10024600F1F71A95D9F70A95C1F72F911F910F91DA
:1002560008950F9301E0C2DFE1DF0F9108950F9338
:100266007F9302E0BBDFDADF7AE005D07DE003D0E2
:100276007F910F9108955D9BFECF7CB9089500E0B4
:1002860010E01A95F1F70A95D9F708957F930F9321
:100296000FB70F930CB10E3639F4DBDFE0DF7EE6E5
:1002A600DEE68BDFE8DF08C0093731F4D2DFD7DFBF
:1002B60079E7D9E782DFDFDFBCDFBBDFCADFCFDF6D
:1002C600B8DF0F910FBF0F917F911895A533D4F426
:1002D600A5330CF00895E030A1F40F9309E1929A4A
:1002E600959A27D09598949A24D09298939A21D04B
:1002F6009498959A1ED0939895980A9581F70F91A0
:10030600E1E00895E130A1F40F9309E1959A939AFB
:1003160010D09598949A0DD09398929A0AD0949862
:10032600959A07D0959892980A9581F70F91E0E0F3
:1003360008950F931F932F9301E010E82FEF2A954E
:10034600F1F71A95D9F70A95C1F72F911F910F91D9
:100356000895A53324F4B93374F0453364F0F130CD
:1003660014F4979AF1E075DF75E427DF84DF61DF27
:1003760060DF6FDF0BC0F03011F09798F0E069DFB7
:1003860071E41BDF78DF55DF54DF63DFF03008955B
:00000001FF
