:020000020000FC
:020000000BC033
:1000160045C10FE50DBF04E00EBF0FEF07BB00E0C3
:1000260000BD09E109B906E800BD539A579A549AEA
:100036007894AED016D1C1E0DE36C79A09F4FCCF6B
:10004600C798C03019F4C1E000E402C0C0E001E482
:1000560007B903E806B900271127222733276FEFD0
:10006600369A3699FECF44B155B1140F251F301F6D
:100076006A95B1F7103810F02F5F3F4F422F532F7C
:100086008FE2839540515742E0F7405F584D9FE21B
:100096009395485E5340E0F748515C4FAFE2A39515
:1000A60044565040E0F74C595F4FBFE2B3954A5073
:1000B6005040E0F7465F5F4F405DC03031F578E471
:1000C60084D0E1D075E681D0DED07CE67ED0DBD070
:1000D6007CE67BD0D8D079E678D0D5D077E675D0D7
:1000E600D2D07BE672D0CFD075E66FD0CCD092D08E
:1000F60079E66BD0C8D074E768D0C5D07AE365D00E
:10010600C2D070E262D0BFD028C07CE45ED0BBD043
:1001160071E65BD0B8D075E758D0B5D074E755D046
:10012600B2D073E752D0AFD074E74FD0ACD071E6FF
:100136004CD0A9D075E649D0A6D06CD072E745D090
:10014600A2D07BE642D09FD075E63FD09CD07AE322
:100156003CD099D070E239D096D0C03019F4792FBE
:1001660034D091D07A2F31D08ED07B2F2ED08BD019
:10017600742FA03329F4B03319F4473308F470E32D
:1001860024D081D05ED05DD06CD071D05AD054CFFF
:100196000F931F932F9322E349D02A95E9F703E0A3
:1001A60008BB32D043D030D041D02ED03FD002E071
:1001B60008BB2AD03BD008E219D00CE017D004E0E7
:1001C60015D02F911F910F9108950F931F93072F0D
:1001D600102F02950F70006108BB16D01F701061BA
:1001E60018BB12D01DD01F910F9108950F931F9326
:1001F600102F02950F7008BB07D01F7018BB04D0D4
:100206000FD01F910F910895C59A000000000000BD
:10021600C59808950F9300ECE9DF08D00F91089573
:100226000F9302E40A95F1F70F9108950F931F9328
:1002360001E219EC1A95F1F70A95D9F71F910F917A
:1002460008950F931F932F9308E01FEF2FEF2A9522
:10025600F1F71A95D9F70A95C1F72F911F910F91CA
:1002660008950F9301E0C2DFE1DF0F9108950F9328
:100276007F9302E0BBDFDADF7AE005D07DE003D0D2
:100286007F910F9108955D9BFECF7CB9089500E0A4
:1002960010E01A95F1F70A95D9F708957F930F9311
:1002A6000FB70F930CB10E3639F4DBDFE0DF7EE6D5
:1002B600DEE68BDFE8DF08C0093731F4D2DFD7DFAF
:1002C60079E7D9E782DFDFDFBCDFBBDFCADFCFDF5D
:0C02D600B8DF0F910FBF0F917F911895BA
:00000001FF
