:020000020000FC
:100000000FE50DBF04E00EBF11E017BB10E011BB00
:100010001FEF12BB312E0F930FE307BB0F912ED0B2
:100020000F9300E307BB0F9129D00F930DE607BB99
:100030000F9124D00F9309E707BB0F911FD00F93A7
:1000400002E707BB0F911AD00F930BE507BB0F9187
:1000500015D00F930FE507BB0F9110D00F9301E35D
:1000600007BB0F910BD00F930FE707BB0F9106D083
:100070000F930BE707BB0F9101D0CDCF40B2142DEA
:100080004324312ED9F31421C9F71FEF2FEF2A95FE
:0E009000F1F71A95D9F710B3142181F70895EE
:00000001FF
